:020000040800F2
:10000000800800209D010008A5010008A701000844
:10001000A9010008AB010008AD01000800000000C4
:10002000000000000000000000000000AF01000818
:10003000B101000800000000B30100088D2C000889
:10004000B7010008B7010008B7010008B7010008B0
:10005000B7010008B7010008B701000853090008FC
:10006000B7010008B701000859090008B7010008E6
:10007000B7010008B7010008B7010008B701000880
:10008000B7010008B7010008B7010008B701000870
:10009000B7010008B7010008B70100085F090008B0
:1000A0007D2D0008B7010008992D0008B701000850
:1000B000B52D0008B701000800000000B7010008D6
:1000C000B70100080000000000000000B7010008B0
:1000D00000000000B7010008B7010008B7010008E0
:1000E0004B090008B70100080000000000000000F4
:1000F0000000000000000000000000000000000000
:1001000000000000000000000000000000000000EF
:100110000000000000000000B7010008B70100085F
:1001200000000000000000000000000000000000CF
:1001300000000000000000000000000000000000BF
:10014000B7010008B701000800000000000000002F
:10015000000000000000000000000000000000009F
:10016000000000000000000000000000000000008F
:10017000000000000000000000000000000000007F
:1001800000000000B7010008DFF80CD000F03AFAD8
:1001900000480047313F000880080020064880479B
:1001A00006480047FEE7FEE7FEE7FEE7FEE7FEE75C
:1001B000FEE7FEE7FEE7FEE7152D000889010008CF
:1001C000202A04DB203A21FA02F00021704721FAAC
:1001D00002F3D040C2F12002914008431946704713
:1001E00000F0004230F000400AD0C10D01F560710E
:1001F000C0F3160042EA0151C2084007114370479C
:1002000000200146704730B50B46014600202022F1
:10021000012409E021FA02F59D4205D303FA02F513
:10022000491B04FA02F52844151EA2F10102F1DC73
:1002300030BD2DE9F05F0546002092469B4688467A
:100240000646814640241BE0284641464746224652
:10025000FFF7B6FF53465A46C01A914110D31146D4
:100260001846224600F0E0F92D1A67EB01084F46C8
:1002700022460120002100F0D7F917EB00094E417A
:10028000201EA4F10104DFDC484631462A464346DD
:10029000BDE8F09F2DE9FE4F804681EA0300C00FC4
:1002A0000C46009021F0004123F00045B8EB02001D
:1002B000A94105D24046214690461C460B460246BF
:1002C00023F00040104347D0270DC7F30A00C3F3C3
:1002D0000A510290401A019040286BDAC3F31300D0
:1002E00040F4801B0098924620B10023D2EB030A11
:1002F00063EB0B0B01985946C0F14002504600F0E9
:1003000093F906460D4650465946019A00F09BF96E
:1003100010EB08006141002487EA115284EAE77378
:100320001A4340D0009A62B3019A012A4FEA075259
:1003300015DC001B61EB02014FF0004202EA07529C
:10034000CDE90042001C41F5801132462B4600F0F9
:100350009BF903B0BDE8F08F40462146F9E7001B4A
:1003600061EB0201001C41F5801300185B4120186D
:10037000A2F5001747EB030140EAD570B6196D41AD
:1003800011E06D084FEA360645EAC0754FEA07529C
:10039000001B61EB0201001C41F5801149084FEA86
:1003A00030000019514132462B4603B0BDE8F04FF2
:1003B00000F05BB90098012240000023D0EB02025C
:1003C00063EBE073009821464FEAE074B8EB00005D
:1003D00061EB0401E9E783F000435BE781F0004152
:1003E00058E72DE9FE4F81EA030404F0004421F0B0
:1003F000004100944FF0000B23F0004350EA010449
:100400005ED052EA03045BD0C3F30A54C1F30A5529
:100410002C44A4F2F3340194A0FB0254C1F3130161
:1004200041F48011C3F3130343F4801301FB02442E
:1004300000FB034E840A970A44EA815447EA835733
:10044000A4FB076802958D0A05FB07854FEA932CEC
:1004500004FB0C542705029D4FEA065847EA16375D
:10046000B5EB08056EEB070C870E920E47EA811775
:1004700042EA8312A7FB0201B6EB0B0164EB000416
:100480002B0D43EA0C335E1844EB1C50DA46514600
:10049000E7FB0201C5F313044FEA0B3343EA14539D
:1004A0004FEA0432019C43EA0603A4F10C040294CF
:1004B000009CCDE900B400F0E7F803B0BDE8F08F90
:1004C00000200146F9E72DE9F04D81EA030404F02C
:1004D000004B21F0004514464FF0000A23F0004184
:1004E00050EA050220D054EA01021DD0C5F30A5794
:1004F0000246C5F31303C1F31300C1F30A5640F4D7
:10050000801543F48013A7EB0608101BD64608F2AB
:10051000FD3873EB050002D308F1010801E09218E1
:100520005B41B8F1000F03DA00200146BDE8F08D11
:1005300000204FF48011064684460EE0171B73EB33
:10054000050705D3121B63EB050306434CEA010CB8
:1005500049084FEA300092185B4150EA0107EDD19B
:1005600052EA030012D082EA040083EA050108433C
:1005700005D0101BAB4106D20122002306E0002269
:100580004FF0004302E06FF0010253101AEB060037
:100590004CEB085110EB0A0041EB0B01BDE8F04DAC
:1005A00000F063B8C1F30A52C1F3130140F2FF3304
:1005B00041F480119A4202DA00200146704740F26D
:1005C00033439A42A2F2334202DC5242FFF7F8BDB3
:1005D00000F02AB830B5041E71F1000404DB4FF0BE
:1005E0000044404264EB0101141E73F1000405DB7A
:1005F0001C464FF00043524263EB0403994208BF8C
:10060000904230BD064C074D06E0E06840F0010323
:1006100094E8070098471034AC42F6D3FFF7B8FDD2
:10062000B4450008D4450008202A04DB203A00FA2B
:1006300002F1002070479140C2F1200320FA03F339
:10064000194390407047202A06DBCB17203A41FA25
:1006500002F043EAE07306E041FA02F3D040C2F14F
:100660002002914008431946704710B5141E73F1DB
:10067000000408DA401C41F1000192185B411A4362
:1006800001D120F0010010BD2DE9F04D92469B46AE
:1006900011B1B1FA81F202E0B0FA80F22032904654
:1006A000FFF7C2FF04460F4640EA0A0041EA0B0189
:1006B00053465A46084313D0114653EA010019D055
:1006C000C8F140025046FFF77BFD05460E465046F6
:1006D00059464246FFF7A8FF084305D0012004E031
:1006E00020463946BDE8F08D0020054346EAE07615
:1006F0002C4337430A986305E40AA0EB0800002264
:10070000FD0A44EA47540A3002D500200146E9E7D1
:10071000010510196941DDE9084500196941BDE885
:10072000F04DA2E72DE9F041074600255FF00004F7
:1007300044F08001384602F093FEB5B18821384676
:1007400002F08EFE00260021384602F0A4FE761C40
:10075000F6B2102EF7D3641CE4B2202CE8D36D1C43
:10076000EDB2022DE2D3BDE8F0818021E7E710B5BC
:100770000446302102F074FE2046BDE810400121FD
:1007800002F06EBE0E48016821F0807101600168C0
:1007900041F0807101600B48016821F001010160A6
:1007A000016841F0010101600021416000BF00BF0C
:1007B00000BF406808B1002070470120704700006A
:1007C000FCED00E0001000E031B5084D6C6800F071
:1007D00017FD0749B0FBF1F00099484300906868A5
:1007E0000099001B8842FAD338BD0000001000E0D9
:1007F00040420F002DE9F04114460746069E1D4673
:1008000002EBD47039B1012907D0022914D0032991
:1008100014D0802105E0802100E0902141EA6000B1
:10082000C1B2384602F01CFEE00703D02021384652
:1008300002F031FE002408E08821EFE79821EDE77F
:10084000295D384602F027FE641CB442F8DBBDE89F
:10085000F0812DE9F0411E46069D0746541B641C9D
:1008600039B1012909D0022918D003291AD08021D1
:100870000AE004EBD470802102E004EBD4709021F4
:1008800041EA6000C1B2384602F0EAFDE00703D059
:100890002021384602F0FFFD00240CE004EBD47068
:1008A0008821EDE704EBD4709821E9E7315D384603
:1008B00002F0F1FD641CAC42F8DBBDE8F081000001
:1008C00070B505465FF0100444F08001284602F040
:1008D000C7FD8321284602F0C3FD0021284602F00F
:1008E000DAFD0121284602F0D6FD8021284602F0DB
:1008F000D2FD641CE4B21F2CE6D300249F212846BD
:1009000002F0AEFD44F08001284602F0A9FDFF216F
:10091000284602F0C0FDFF21284602F0BCFD8021E0
:10092000284602F09DFD44F08801284602F098FD1B
:10093000FF21284602F0AFFDFF21284602F0ABFD63
:10094000641CE4B2082CD9D370BD4FF4006000F0F1
:1009500067B9022000F064B9102000F061B92020CE
:1009600000F05EB970B5044600F030FA0546601C30
:1009700002D004480078044400F028FA401BA0424A
:10098000FAD370BD500000202DE9F0479F4C074678
:10099000002560784FF001084FF00309012802D0CC
:1009A000E078012878D1102F01D0202F74D1984EF3
:1009B0001021304600F000FA82462021304600F037
:1009C000FBF940EA4A00C6B22078864264D09148DA
:1009D000217850F82100B04202D12089401C08E063
:1009E0008C482178103050F82100B04202D1208983
:1009F000401E2081032E4ED1B4F90800002822DDCC
:100A0000E078022804D0032805D0012806D041E070
:100A100003F05EFA3EE003F073FA3BE0E06C02F0B4
:100A20001CF92079401C10F00300207106D0012829
:100A300006D0401EC1B20022E06C24E084F804809D
:100A400000220321F8E7B4F90800002822DAE07850
:100A5000022804D0032805D0012806D01AE003F0AC
:100A6000D7F917E003F0EAF914E0E06C02F0F5F8CA
:100A70002079401E10F0030121711AD003291AD0E9
:100A80000022491CE06C01F071FD01222179E06C2B
:100A900001F06CFD2581267000F098F92064616CEE
:100AA000401AC82804D9B7F5006F07D0022F50D0DC
:100AB000A8E084F8049000220121BDE7E078012835
:100AC00004D0022819D0032829D09BE020790128DE
:100AD00004D0022807D0032804D109E00220E070E6
:100AE00003F064FB8EE084F8039003F0C3FB89E01D
:100AF0000420E07003F098FA84E0607810B10128D7
:100B000007D07FE084F8018094ED0C0A84ED0E0A92
:100B100010E0657094ED0E0A84ED0C0A15E0607823
:100B200010B101280AD06DE084F8018094ED060A26
:100B300084ED0F0A384801F0C7F863E0657094ED62
:100B40000F0A84ED060A03F09BFC334801F0C8F855
:100B500015E0E078012855D0022804D0032802D0FF
:100B600004284BD04EE06078012801D088B149E0DC
:100B70006570294801F0B4F8A078012842D1E06CF2
:100B800002F06BF8A57003F0BFFCE06C02F074F8A3
:100B900038E02148403801F0A3F81F48803001F0C8
:100BA0009FF884F8038003F089FA9FED1C0A84ED16
:100BB000060A84ED0F0A84ED0C0A84ED0E0A84ED1A
:100BC000030A84ED040AA56484ED090AE58012484D
:100BD00080380068456210483C21803801F0B0F947
:100BE0000D48403801F07CF80B4840300068456300
:100BF00009480021403001F07BFB03E084F80380CA
:100C000003F05CFA206C6064BDE8F087000000200F
:100C1000000400485C4500084C0100200000000072
:100C2000044910B50A68024202D00860FFF7ACFE22
:100C300010BD0000140401402DE9F84FDFF860B149
:100C400000234FF0010C4FF0030A4FF00F090BF196
:100C5000040E9DE00CFA03F6344022007ED04C686E
:100C6000022C01D0122C0ED1DC0800EB8408D8F83D
:100C700020405D07EF0E09FA07F5AC430D69BD4052
:100C80002543C8F8205007685D0091F804800AFAEF
:100C900005F408F00308A74308FA05F848EA07082E
:100CA000C0F800804F68012F05D0022F03D0112F0C
:100CB00001D0122F11D18768D1F80C80A74308FA10
:100CC00005F848EA0708C0F808804768B7430E7976
:100CD000C6F300169E403E434660C668A6438C6835
:100CE000AC403443C4604C68E40050D52D4CA56939
:100CF00045F00105A561A46923F0030504F0010492
:100D00000094294C2E19B4689D072F0F09FA07F596
:100D1000AC43B0F1904F04D0244DA84203D101253B
:100D20000CE000250AE0224DA84201D1022505E091
:100D3000204DA84201D1032500E00525BD402543F3
:100D4000B560DBF800405D464E689443F60300D57D
:100D500014432C607546DEF8004000E017E04E6852
:100D60009443B60300D514432C600D4D08352C6810
:100D70004E689443F60200D514432C60084D0C35A0
:100D80002C684E689443B60200D514432C605B1C5B
:100D90000A681446DA407FF45DAFBDE8F88F0000C2
:100DA000000401400010024000000140000400481F
:100DB00000080048000C00480069084000D00120ED
:100DC00070470AB18161704781627047014880684D
:100DD00070470000500000200248816802781144EA
:100DE0008160704750000020074810B5016841F04D
:100DF00010010160032000F095F8002000F006F8D3
:100E000000F024F8002010BD0020024070B50D4D08
:100E100004464FF47A712878B1FBF0F00A4909686A
:100E2000B1FBF0F000F05EFE48B9102C07D20022B2
:100E30002146501E00F056F800206C6070BD012065
:100E400070BD0000500000205C0000201E4808B566
:100E5000816941F001018161816901F00101009125
:100E6000C16941F08051C161C06900F080500090BB
:100E7000032000F057F8002211466FF00B0000F03D
:100E800031F8002211466FF00A0000F02BF8002222
:100E900011466FF0090000F025F800221146501F9E
:100EA00000F020F800221146101F00F01BF800226D
:100EB0001146901E00F016F80022BDE808401146C9
:100EC000501E00F00FB800000010024000F01F029A
:100ED000012191404009800000F1E020C0F800119C
:100EE00070470000F0B40E4B1B680C46C3F302239E
:100EF000C3F10705042D00D90425191D072901D2C6
:100F0000002300E0DB1E012606FA05F1491E214000
:100F100099409E40761E16403143F0BC01F0D0BD92
:100F20000CED00E0064900F0070208684FF6FF03E9
:100F3000184040EA0220034A10430860704700004E
:100F40000CED00E00000FA052DE9F84F04460068BA
:100F5000574DC0036FD5E8690026C00008D4E86982
:100F600040F08050E861E869012600F08050009070
:100F700050480168C90512D40168804641F4807167
:100F80000160FFF723FF074605E000BFFFF71EFFE4
:100F9000C01B642835D8D8F80000C005F6D5286AEB
:100FA00010F4407053D0A18801F4407181424ED0BA
:100FB000286A4FF4803191FAA1F2B2FA82F29700D6
:100FC0003D4A4FF00108174420F44070C7F80084F0
:100FD00091FAA1F1B1FA81F102EB81010023C1F88C
:100FE00000342862C00732D0FFF7F0FE074641F216
:100FF000883A4FF0020907E0FFF7E8FEC11B5145B0
:1010000002D90320BDE8F88F99FAA9F1B1FA81F16C
:1010100041F040014846B8EB511F01D129680CE06E
:1010200090FAA0F1B1FA81F141F04001B0EB511F0B
:1010300002D1296A01E015E0696A99FAA9F0B0FACB
:1010400080F000F01F0008FA00F21142D4D0286AA4
:10105000616820F44070084328621EB1E86920F0FE
:101060008050E8612078C00705D0286BA16820F087
:101070000300084328632078800605D5286BE168C3
:1010800020F01000084328632078000605D5E86AA0
:10109000216920F4F8700843E8622088C00405D56F
:1010A000286B616920F48070084328630020A9E759
:1010B0000010024000700040000042422DE9F0475D
:1010C0000F46050069D04A4E306800F00700B8426C
:1010D00009D2306820F0070038433060306800F0F3
:1010E0000700B84259D12878424C800705D560687E
:1010F000A96820F0F000084360602878C0073DD060
:101100006968012001290DD0022923D05FF0020374
:1011100093FAA3F2B2FA82F242F02002520904D00A
:10112000226803E04FF40033F2E7626A93FAA3F314
:10113000B3FA83F303F01F03984002422DD0606896
:1011400020F0030008436060FFF740FE804641F254
:1011500088390CE04FF00073DAE700BFFFF736FE86
:10116000A0EB0801494502D90320BDE8F08760687B
:10117000696800F00C00B0EB810FEFD1306800F02F
:101180000700B8420BD9306820F0070038433060C0
:10119000306800F00700B84201D00120E5E7287868
:1011A000400705D56068E96820F4E06008436060A6
:1011B0002878000706D56068296920F4605040EA65
:1011C000C100606000F052F86168F02292FAA2F269
:1011D00001F0F001B2FA82F2D140074A515CC840F6
:1011E000064908600020FFF711FE0020BDE700005F
:1011F00000200240001002409C4500085C000020D6
:1012000001480068704700005C0000200848094958
:10121000006849684FF4E06292FAA2F201F4E061DA
:10122000B2FA82F2D140044A515CC84070470000D3
:101230005C00002000100240AC4500080848094945
:10124000006849684FF4605292FAA2F201F46051CA
:10125000B2FA82F2D140044A515CC84070470000A3
:101260005C00002000100240AC450008144B10B593
:101270005A68144802F00C0104291DD008291BD11A
:101280004FF4701494FAA4F402F47011B4FA84F4D4
:10129000E1400D4CDB6A615C0F2494FAA4F403F086
:1012A0000F03B4FA84F4E340074C1034D203E35C38
:1012B00003D5B0FBF3F0484310BD0448484310BDCC
:1012C0000010024000127A007C45000800093D0031
:1012D0002DE9F84F040071D02078FB4DC0074FF086
:1012E000010625D068687704C0F38100012807D083
:1012F0006868C0F3810002281BD16868C00318D554
:1013000097FAA7F0B0FA80F040F02000400901D031
:10131000286800E0686A97FAA7F1B1FA81F101F054
:101320001F0106FA01F1084265D060680028D2D09A
:1013300061E06068B0F5803F0BD010B1B0F5A02F30
:1013400017D0286820F480302860286820F4802096
:1013500002E0286840F480302860E86AA16820F044
:101360000F000843E862606820B3FFF72FFD804656
:101370000AE0286840F480202860EAE7FFF726FDAD
:10138000A0EB0800642872D897FAA7F0B0FA80F0B2
:1013900040F02000400901D0286800E0686A97FA10
:1013A000A7F1B1FA81F101F01F0106FA01F108423B
:1013B000E4D020E0FFF70AFD804607E0C7E000BF69
:1013C000FFF704FDA0EB08006428DCD897FAA7F02B
:1013D000B0FA80F040F02000400901D0286800E019
:1013E000686A97FAA7F1B1FA81F101F01F0106FAD4
:1013F00001F10842E4D12078DFF8D08280074FF075
:10140000000A4FF0020759D568684FF0F80B10F04A
:101410000C0F07D06868C0F3810002281BD16868F0
:10142000C00318D497FAA7F0B0FA80F040F020007B
:10143000400901D0286800E0686A97FAA7F1B1FA7C
:1014400081F101F01F0106FA01F108422BD0206959
:1014500001287CD127E0206988B396FAA6F0B0FA7B
:1014600080F048F82060FFF7B1FC814606E055E1C6
:10147000FFF7ACFCA0EB0900022884D897FAA7F08C
:10148000B0FA80F040F02000400901D0286800E068
:10149000686A97FAA7F1B1FA81F101F01F0106FA23
:1014A00001F10842E4D028689BFAABF26169B2FA14
:1014B00082F220F0F80091400843286025E0FFE721
:1014C00096FAA6F1B1FA81F148F821A0FFF77EFC67
:1014D000814605E0FFF77AFCA0EB09000228CCD892
:1014E00097FAA7F0B0FA80F040F02000400901D050
:1014F000286800E0686A97FAA7F1B1FA81F101F073
:101500001F0106FA01F10842E4D1207800076AD5EC
:10151000A069A0B396FAA6F0B0FA80F008EB8000BC
:10152000C0F88064FFF752FC814605E0FFF74EFCEF
:10153000A0EB09000228A0D897FAA7F0B0FA80F033
:1015400040F06000B6EB501F02D128680CE077E154
:1015500097FAA7F0B0FA80F040F06000B7EB501FA8
:1015600001D1286A00E0686A97FAA7F1B1FA81F11F
:1015700001F01F0106FA01F21042D7D033E0FFE775
:1015800096FAA6F0B0FA80F008EB8000C0F880A4CC
:10159000FFF71CFC814605E0FFF718FCA0EB0900F3
:1015A00002289CD897FAA7F0B0FA80F040F06000CB
:1015B000B6EB501F01D128680BE097FAA7F0B0FAFC
:1015C00080F040F06000B7EB501F01D1286A00E0C6
:1015D000686A97FAA7F1B1FA81F101F01F0106FAE2
:1015E00001F21042D8D12078400774D5E8694FF055
:1015F0000009C00009D4E86940F08050E861E8695A
:101600004FF0010900F08050009031480168C90591
:1016100012D4016841F480710160FFF7D7FB834663
:1016200006E000BFFFF7D2FBA0EB0B00642875D8E3
:1016300027480068C005F5D5E06801280AD008B140
:10164000052811D0286A20F001002862286A20F0BD
:10165000040002E0286A40F001002862E068C8B394
:10166000FFF7B4FB83460DE0286A40F004002862CF
:10167000F0E700BFFFF7AAFBA0EB0B0141F28830B7
:1016800081424BD897FAA7F0B0FA80F040F04000C2
:10169000B6EB501F01D128680BE097FAA7F0B0FA1B
:1016A00080F040F04000B7EB501F01D1286A00E005
:1016B000686A97FAA7F1B1FA81F101F01F0106FA01
:1016C00001F21042D6D035E0001002400000424244
:1016D0000070004000E034E0FFF778FB834607E04D
:1016E000FFF774FBA0EB0B0141F28830814215D863
:1016F00097FAA7F0B0FA80F040F04000B6EB501F28
:1017000001D128680CE097FAA7F0B0FA80F040F019
:101710004000B7EB501F02D1286A01E083E0686AFD
:1017200097FAA7F1B1FA81F101F01F0106FA01F26F
:101730001042D5D1B9F1000F03D0E86920F08050F4
:10174000E861E06980B36968C1F38101022977D05B
:101750004FF080714F00022809D091FAA1F0B0FA41
:1017600080F048F820A0FFF731FB04465EE05046C9
:101770008A4691FAA1F1B1FA81F1C14648F82100F7
:10178000FFF724FB804605E0FFF720FBA0EB0800F5
:10179000022848D897FAA7F0B0FA80F040F020006D
:1017A000400902D0286801E056E0686A97FAA7F17C
:1017B000B1FA81F101F01F0106FA01F10842E3D10B
:1017C000D4E908100843696821F47411084368607B
:1017D0009AFAAAF0B0FA80F049F82060FFF7F6FA1A
:1017E000044604E0FFF7F2FA001B02281BD897FA20
:1017F000A7F0B0FA80F040F02000400901D028683E
:1018000000E0686A97FAA7F1B1FA81F101F01F01CF
:1018100006FA01F10842E5D01EE000BFFFF7D6FA54
:10182000001B022802D90320BDE8F88F97FAA7F021
:10183000B0FA80F040F02000400902D0286801E0B2
:101840000CE0686A97FAA7F1B1FA81F101F01F0183
:1018500006FA01F10842E1D10020E5E70120E3E7C3
:101860002DE9F041040005D00025A56294F85D0043
:1018700018B107E00120BDE8F08184F85C502046F3
:1018800000F044F8022384F85D302068016821F0FC
:1018900040010160E0684FF4E066B04201D90021E8
:1018A00001E04FF48051B0F5706F02D0B04200D02B
:1018B000A562276B012227B9B04201D9236300E05A
:1018C0002263D4E901031843D4E9043633431843AF
:1018D000238B03F400731843E3691843236A184306
:1018E000A36A184323681860636B606AA66918438B
:1018F0000427E36807EA1646334318430843216880
:101900004860256684F85D200020B4E700B50068D3
:101910000E4987B0884217D10D48816941F4805142
:1019200081618069694600F480500590A020009094
:1019300002200190012002900320039005200490D2
:101940004FF09040FFF778F907B000BD003001403C
:10195000001002402DE9F84F044690F85C00002684
:10196000984617460D4601280DD04FF0010A84F81D
:101970005CA0FFF72BFA834694F85D00B14601287E
:1019800004D002269BE00220BDE8F88F002D73D022
:10199000002F71D0032084F85D00C4F86090A56327
:1019A000A787E787C4F84090A4F84490A4F846902D
:1019B000C4F85090C4F84C90A068B0F5004F04D122
:1019C0002068016841F4804101602068016849068F
:1019D00003D4016841F040010160E068B0F5E06FB8
:1019E000606823D910B1E08F01281BD1216835F838
:1019F000020BC86006E020688168890706D535F8C3
:101A0000021BC160E08F401EE0870BE0B8F1000FC1
:101A10003FD0B8F1FF3F05D0FFF7D8F9A0EB0B019D
:101A2000414536D2E08F0028E5D137E010B1E08F94
:101A3000012830D1E08F012804D9216835F8020B44
:101A4000C86010E0216815F8010B087311E0E08709
:101A500021E02068816889070FD5E18F012905D928
:101A600035F8021BC160E08F801EF0E715F8011BFE
:101A70000173E08F401EEAE720E0B8F1000F08D0C4
:101A8000B8F1FF3F07D0FFF7A1F9A0EB0B014145EB
:101A900001D3032613E0E08F0028DAD15A464146ED
:101AA000204601F01DF808B120202066A06818B972
:101AB0002068C16880680090206E00B1012684F81B
:101AC0005DA084F85C9030465EE74FF0E02104288A
:101AD000086903D020F004000861704740F004005A
:101AE000FAE7704710B5401EB0F1807F01D30120A6
:101AF00010BD4FF0E02460610F21601700F0E0FF9F
:101B00000020A06107202061002010BD10B5FFF764
:101B1000E8FF10BD704770477047000030B590F87F
:101B20003C20012A3AD0012280F83C20CA688C6807
:101B300022F4407222434C6822F4806222430C68F3
:101B400022F4006222430C6922F4805222434C6941
:101B500022F4005222438C6A22F48042224322F46F
:101B6000004222430C8B22F4702242EA04420C4DC4
:101B700004680023AC420CD18D8C22F4700242EA3E
:101B80000552CD6922F080722A43096A22F0007260
:101B90000A43626480F83C30002030BD022030BD32
:101BA000002C014030B590F83C20012A1CD00122C5
:101BB00080F83C2003685A689C680C4DAB4203D106
:101BC00022F470054A682A4322F070050A68896881
:101BD0002A4324F0800421435A6002689160002166
:101BE00080F83C10084630BD022030BD002C01407A
:101BF00010B5040003D094F83D0010B107E00120B7
:101C000010BD002084F83C00204600F00DF80220B2
:101C100084F83D00211D206801F0D2F8012084F8ED
:101C20003D00002010BD000008B501682248B1F158
:101C3000804F11D0214A91421DD1816941F48031F8
:101C400081618069002200F48030009011461820E4
:101C5000FFF748F918202BE0C16941F00101C1618B
:101C6000C069002200F00100009011461C20FFF71F
:101C700039F91C201CE0124A914208D1816941F4D3
:101C800000318161806900F40030009008BD0D4A88
:101C90009142FBD1816941F48021816180690022F8
:101CA00000F48020009011461A20FFF71BF91A203B
:101CB000BDE80840FFF70AB90010024000400140AB
:101CC00000440140004801400168CA6842F0010236
:101CD000CA600068016841F001010160002070479E
:101CE0000168CA6822F00102CA600068016A41F214
:101CF0001112114207D1016A9210114203D10168F9
:101D000021F00101016000207047000070B5044619
:101D100090F83C00012817D0012584F83C5002209F
:101D200084F83D0022689068364E304020F47F40B1
:101D300090600868502839D00DDC20285BD005DC85
:101D400098B3102843D153E0022070BD302855D0FD
:101D500040283CD141E0602830D070280CD0B0F54C
:101D6000805F03D0B0F5005F31D112E02068816858
:101D7000244A7032114016E0CB68D1E90121206875
:101D800001F06DF821688868304040F07700886085
:101D90001DE0CB68D1E90121206801F060F82068DE
:101DA000816841F48041816011E01EE0CA684968A1
:101DB000206801F0C7F95021206806E0CA68496828
:101DC000206801F0D0F96021206801F052F884F811
:101DD0003D50002084F83C0070BDCA684968206806
:101DE00001F0B0F940212068EFE700212068ECE71E
:101DF00010212068E9E720212068E6E730212068EB
:101E0000E3E7000088FFFEFF2DE9F0410D460400E6
:101E100003D094F83D0018B108E00120BDE8F0813E
:101E2000002084F83C00204600F03CF8022084F8B2
:101E30003D00206881681A4A11408160211D206898
:101E400000F0BEFF226890689169166A2B68AF693E
:101E5000034340F20330814341EA0721A868EF6958
:101E600008434FF6FC418843E96840EA07200143F4
:101E700028692F6A000140EA0730084369686D69E4
:101E800026F0AA0646EA0515294393602268906168
:101E900020680162012084F83D000020BEE70000B8
:101EA000F8FFFEFF00B50068164987B0884227D1C9
:101EB0001548816941F4006181618069694600F4D7
:101EC000006005904FF440700090022001900020C7
:101ED00002900390062004904FF09040FEF7ACFE75
:101EE000002211461820FEF7FDFF1820FEF7EEFF36
:101EF000002211461A20FEF7F5FF1A20FEF7E6FF32
:101F000007B000BD002C01400010024010B504468F
:101F1000006891B1042904D00122002100F094FF4F
:101F2000206801225FF0040100F08EFF2068016844
:101F300041F001010160002010BD01220021F3E702
:101F400010B504460068D9B1042904D00022114616
:101F500000F07AFF206800225FF0040100F074FFB7
:101F60002068016A41F21112114207D1016A9210F0
:101F7000114203D1016821F001010160002010BD70
:101F800000221146EAE7704770B50446006801690F
:101F90004FF00005C943890715D4C168C9438907B3
:101FA00011D4E91E01610120207720688069800733
:101FB000204602D0FFF7E7FF04E000F0C1F820461A
:101FC00000F06FF9257720680169C943490717D4E4
:101FD000C168C943490713D46FF0040101610220AD
:101FE00020772068806910F4407F204602D0FFF7F8
:101FF000CAFF04E000F0A4F8204600F052F925776B
:1020000020680169C943090716D4C168C943090793
:1020100012D46FF008010161042020772068C069A4
:102020008007204602D0FFF7AEFF04E000F088F8FA
:10203000204600F036F9257720680169C943C906B2
:1020400017D4C168C943C90613D46FF010010161E8
:10205000082020772068C06910F4407F204602D015
:10206000FFF791FF04E000F06BF8204600F019F94B
:10207000257720680169C943C90708D1C168C943E8
:10208000C90704D1891E0161204600F069F9206862
:102090000169C943090609D4C168C943090605D4C1
:1020A0006FF0800101612046FFF735FD206801696E
:1020B000C943C90509D4C168C943090605D46FF4E9
:1020C000807101612046FFF725FD20680169C94341
:1020D000490609D4C168C943490605D46FF04001D7
:1020E0000161204600F0C4F920680169C9438906EE
:1020F0000BD4C168C943890607D46FF02001016180
:102100002046BDE87040FFF707BD70BD00B5006810
:102110000A4985B088420ED18014009002200190B7
:1021200000200290032003900120049069464FF0A4
:102130009040FEF781FD05B000BD00000044014065
:10214000704770B5044690F83C000D4601280ED04B
:10215000012684F83C60022084F83D000C2A45D01A
:1021600007DC5AB1042A1BD0082A78D12CE00220BF
:1021700070BD102A4ED0142A71D15DE0206800F0A5
:1021800081FE2068816941F00801816120688169D0
:1021900021F004018161206881692A69114311E0FD
:1021A000206800F0B3FE2068816941F4006181611C
:1021B0002068816921F480618161206881692A69D0
:1021C00041EA022181614AE0206800F0DFFE2068D8
:1021D000C16941F00801C1612068C16921F00401B1
:1021E000C1612068C1692A69114311E0206800F0CB
:1021F0000DFF2068C16941F40061C1612068C169B7
:1022000021F48061C1612068C1692A6941EA022123
:10221000C16124E0206800F02FFF2068416D41F08B
:10222000080141652068416D21F004014165206885
:10223000416D2A69114311E0206800F04FFF2068CA
:10224000416D41F4006141652068416D21F4806178
:1022500041652068416D2A6941EA0221416584F89F
:102260003D60002084F83C0070BD10B5040003D030
:1022700094F83D0010B107E0012010BD002084F863
:102280003C00204600F00CF8022084F83D00211D9F
:10229000206800F095FD012084F83D00002010BD6D
:1022A0007047704710B504460068012200F0CCFD6D
:1022B0000B482168814208D00A48814205D00A486B
:1022C000814202D00948814203D1486C40F4004069
:1022D00048642068016841F001010160002010BDE0
:1022E000002C0140004001400044014000480140F2
:1022F00010B504460068002200F0A6FD144841F223
:10230000111221689310814208D01248814205D0F1
:102310001148814202D01148814209D1086A104215
:1023200006D1086A184203D1486C20F40040486482
:102330002068016A114206D1016A194203D101687D
:1023400021F001010160012084F83D00002010BD52
:10235000002C014000400140004401400048014081
:1023600070B5054600683E4CB0F1804F59D13D48EC
:102370000068406AE188F2EE0E0A411A09B200EEE6
:10238000101AB8EEC00A20EE200A84ED030AE0809D
:1023900094ED050AD4ED030AB7EE001A20EE200AE8
:1023A000D4ED050A71EE600A94ED041A00EE810A7C
:1023B00084ED040AE078022833D194ED0C0AD4EDC0
:1023C000040A94ED081A70EE600A94ED090A01EE11
:1023D000200A84ED090A94ED090A94ED0B1AB4EE73
:1023E000C10AF1EE10FA02DD94ED0B0A0AE094ED59
:1023F000090A94ED0A1AB4EEC10AF1EE10FA03D2FA
:1024000094ED0A0A84ED090A94ED090A94ED071A7D
:1024100001EE200ABDEEC00A10EE100A00B201F073
:10242000D3FC1149286888420DD1E06C00F015FCFE
:1024300002F040F8A07870B102F066F80020A070B9
:10244000E06C00F019FC09492868884207D1BDE812
:10245000704001F075BF02F02DF80120EFE770BD6C
:1024600000000020CC000020004001400048014056
:10247000704710B5040003D094F8690010B107E06C
:10248000012010BD002084F86800204600F026F8E6
:10249000242084F869002068016821F001010160AE
:1024A000204600F005FF0128EBD0606A10B12046FD
:1024B00000F06BFE2068416821F490414160206883
:1024C000816821F02A0181602068016841F00101E2
:1024D00001602046BDE8104000F0BBBE00B50068BA
:1024E0000F4987B0884218D10E48C16941F40031C4
:1024F000C161C069694600F40030059048F20400EB
:1025000000900220019000200290032003900720F9
:1025100004904FF09040FEF78FFB07B000BD000025
:1025200000440040001002402DE9F041074600251C
:10253000002445F080063146384600F091FF44F013
:102540008801384600F08CFFFF21384600F0A3FFD9
:10255000FF21384600F09FFF641CE4B2082CEAD348
:102560006D1CEDB2102DE3D3BDE8F0812DE9F74FDE
:102570008807840E80251746202C02D3203CE4B225
:10258000882504F10F08002648F0800944F0800BEC
:102590005946009800F064FF45EA06018A46009813
:1025A00000F05EFF2FB1FF21009800F074FFFF21C3
:1025B00004E00021009800F06EFF0021009800F078
:1025C0006AFF09F0FF01009800F04AFF51460098A9
:1025D00000F046FF2FB1FF21009800F05CFFFF21C3
:1025E00004E00021009800F056FF0021009800F060
:1025F00052FF761CF6B2082ECAD3641CE4B24445DE
:1026000029D244F080010E46009800F029FF2946A7
:10261000009800F025FF0FB1802100E00021009814
:1026200000F039FF0021009800F035FF3146009896
:1026300000F016FFE81DC1B2009800F011FF002164
:10264000009800F028FF0FB1012100E00021009860
:1026500000F021FFD1E7BDE8FE8F00002DE9F04139
:1026600006460025002445F080073946304600F034
:10267000F7FE44F08001304600F0F2FEFF213046C4
:1026800000F009FFFF21304600F005FF641CE4B2B2
:10269000032CEAD36D1CEDB2102DE3D35FF00004E0
:1026A00044F08001304600F0DBFE8321304600F02C
:1026B000D7FEFF21304600F0EEFEFE21304600F04E
:1026C000EAFE641CE4B2102CEAD3BDE8F0812DE9E7
:1026D000F0410646002444F08001304600F0C0FE80
:1026E0008421304600F0BCFE7F21304600F0D3FE4E
:1026F000FF21304600F0CFFE641CE4B2102CEAD378
:102700000025052445F080073946304600F0A8FE34
:1027100044F08001304600F0A3FEFF21304600F077
:10272000BAFEFF21304600F0B6FE641CE4B2082C6D
:10273000EAD36D1CEDB2102DE3D3BDE8F08110B5E6
:1027400004462820FEF70EF93021204600F088FECE
:102750006420FEF739F83021204600F081FE252064
:10276000FEF732F80C21204600F07AFE6420FEF7D6
:102770002BF80121204600F073FE0A20FEF7F2F844
:102780002046BDE81040062100F06ABE0160704797
:102790002DE9F047404886B0416941F4800141612C
:1027A000416901F480010591416941F400314161C1
:1027B000416901F400310591416941F48021416191
:1027C00040694FF0904900F48020059000224FF4BA
:1027D00082614846FEF7F5FADFF8C0A00022082122
:1027E0005046FEF7EEFA02262D4F01240096CDE961
:1027F000017469462B48FEF71FFA032510204FF09D
:10280000000803958DE8110169464846FEF714FA61
:10281000A00203958DE8510069464846FEF70CFA80
:10282000E002CDE90007694602944846FEF704FA43
:10283000082003958DE8110169465046FEF7FCF922
:10284000302000901848CDE9010469465046FEF753
:10285000F3F9002211460720FEF744FB0720FEF79C
:1028600035FB002211460A20FEF73CFB0A20FEF74A
:102870002DFB002211461720FEF734FB1720FEF730
:1028800025FB002211462820FEF72CFB2820FEF70E
:102890001DFB06B0BDE8F0870010024000040048B0
:1028A000000021100014004800003110124810B53B
:1028B000104901604FF4827141604FF40041816022
:1028C0004FF4E061C16000214FF400720161C0E982
:1028D00005122822C0E9072107224162C0E90A1235
:1028E000016308214163FEF7BBFF002800D0FEE72B
:1028F00010BD0000003001406800002010B51448F1
:1029000088B0124901604FF6FF110024C0E901149C
:1029100040F21F31C0E9031444618461FFF768F994
:1029200000B1FEE74FF48050039003A90848FFF779
:10293000EDF900B1FEE70094694605480294FFF7FF
:1029400031F9002800D0FEE708B010BD004001407A
:102950004C01002010B51E4892B01C490024C0E96B
:10296000001440F2FF71C0E90241046144618461D6
:10297000FFF73EF900B1FEE71548FFF776FC00B11E
:10298000FEE76020CDE90B040D940E940F94109493
:1029900000220BA90E481194FFF7D3FB00B1FEE70C
:1029A00000944FF40050CDE9044001940294039444
:1029B0000694694606480A94FFF7B0F800B1FEE7AE
:1029C0000348FFF7A3FB12B010BD00000044014014
:1029D0008C01002010B516488CB014490024C0E9C1
:1029E00000144FF6FF71C0E9024104614461846143
:1029F0000320CDE900040120CDE902040F21049158
:102A0000CDE90540CDE9074169460948FFF7FCF9E2
:102A100000B1FEE709940A9409A905480B94FFF751
:102A2000C1F8002800D0FEE70CB010BD002C01401A
:102A3000CC00002010B5134888B04FF080410160F1
:102A40003F210024C0E9011442F20F71C0E90314D0
:102A50008461FFF7CDF800B1FEE74FF4805003909A
:102A600003A90848FFF752F900B1FEE70094694650
:102A700004480294FFF796F8002800D0FEE708B05B
:102A800010BD00000C0100200C4810B50A4901607F
:102A90004FF416514160002181600C22C160C0E9F1
:102AA00004128161C16101624162FFF7E2FC00280A
:102AB00000D0FEE710BD0000004400400C020020E2
:102AC0000907090E002806DA00F00F0000F1E020E7
:102AD00080F8141D704700F1E02080F80014704762
:102AE000F8B515460E460B460092044600224FF4F8
:102AF000C05100F019F888B93346002280212046E1
:102B0000009500F060F848B9334600224FF4C061E8
:102B10002046009500F008F8002804D0206E40F010
:102B2000200020660320F8BD2DE9F8431D46174616
:102B30000E4604464FF4C068DDF820903CE0464560
:102B400005D127B9007B8DF800009DF80000681CB6
:102B500032D02DB1FEF73AF9A0EB0900A8422BD3F1
:102B60002068416821F0E00141606068B0F5827F33
:102B70000BD1A068B0F5004F02D0B0F5806F04D142
:102B80002068016821F040010160A06AB0F5005F93
:102B900009D12068016821F40051016020680168B2
:102BA00041F400510160012084F85D00002084F8A8
:102BB0005C000320BDE8F883206881683140B94299
:102BC000BDD10020F6E72DE9F0411D4617460E461F
:102BD0000446DDF8188034E0681C32D02DB1FEF7D1
:102BE000F5F8A0EB0800A8422BD32068416821F03B
:102BF000E00141606068B0F5827F0BD1A068B0F55C
:102C0000004F02D0B0F5806F04D12068016821F038
:102C100040010160A06AB0F5005F09D12068016839
:102C200021F4005101602068016841F40051016005
:102C3000012084F85D00002084F85C000320BDE8DA
:102C4000F0812068806836EA000004D00020B84295
:102C5000C2D10020F3E70120F9E710B50446302186
:102C600000F0FEFB3421204600F0FAFB2046BDE8D0
:102C70001040362100F0F4BB302100F0F1BB13B559
:102C80006423012201A9FEF765FE1CBD10B5FEF705
:102C9000A3F8BDE81040FEF739BF30B595B0022566
:102CA0000120049000951020059000244FF460103E
:102CB000CDE9084007956846FEF70AFB00B1FEE73C
:102CC0000F20CDE90A054FF48060CDE90C400221C8
:102CD0000AA80E94FEF7F2F900B1FEE74FF4805017
:102CE00014940F900FA8FEF72FF900B1FEE7FEF73E
:102CF00087FA4FF47A71B0FBF1F0FEF7F3FE04208F
:102D0000FEF7E3FE00221146501EFEF7EBF815B069
:102D100030BD00001448016841F47001016013489F
:102D2000016841F0010101604168114A11404160B0
:102D30000168104A11400160016821F4802101609E
:102D4000416821F4FE014160C16A21F00F01C162B6
:102D5000016B094A11400163002181600249C003EF
:102D6000803908607047000088ED00E000100240E4
:102D70000CC07FF8FFFFF6FECCFC00FF10B5044846
:102D8000FFF702F9BDE810400248FFF7FDB8000068
:102D9000CC0000204C01002010B50448FFF7F4F8E7
:102DA000BDE810400248FFF7EFB80000CC0000205B
:102DB000CC0100200148FFF7E7B800000C0100201B
:102DC000F0B502681B4B1C4F4FF0804C984203D06B
:102DD000604501D0B84203D122F070044A68224312
:102DE000164C174D174E984209D0604507D0B8428F
:102DF00005D0A04203D0A84201D0B04203D122F4B2
:102E00004077CA683A434F6922F080023A43026031
:102E10008A68C2620A688262984205D0A04203D0E2
:102E2000A84201D0B04201D1096901630121416189
:102E3000F0BD0000002C01400004004000400140B3
:102E4000004401400048014010B50123046A8B4052
:102E50009C430462036A8A401343036210BD10B5A9
:102E6000846842EA032224F47F440A4322438260B6
:102E700010BD826822F070020A4342F007018160AF
:102E800070470000F0B5026A22F001020262056A92
:102E900043688269184C25F0020522400C6822F034
:102EA000030214438A68164E2A43144D154FDFF867
:102EB00058C0A84205D0B04203D0B84201D0604506
:102EC00006D122F0080ECA6842EA0E0222F004027D
:102ED000A84205D0B04203D0B84201D0604505D128
:102EE0004D6923F440731D438B692B434360846118
:102EF000496841630262F0BD8FFFFEFF002C014074
:102F000000400140004401400048014030B5026AE1
:102F100022F010020262046A42688369164D2B4057
:102F20000D6823F4407343EA052524F020038C68E0
:102F300043EA0413114CA04207D1CC6823F080036C
:102F400043EA041323F0400308E00D4CA04205D0EF
:102F50000C4CA04202D00C4CA04207D14C6922F488
:102F6000406242EA84028C6942EA840242608561DE
:102F700049688163036230BDFF8FFFFE002C014072
:102F800000400140004401400048014030B5026A61
:102F900022F480720262046A4268C369164D2B40B3
:102FA0000D6823F003031D4324F400738C6843EA87
:102FB0000423124CA04207D1CC6823F4006343EAF7
:102FC000042323F4806308E00D4CA04205D00D4C8F
:102FD000A04202D00C4CA04207D14C6922F44052CE
:102FE00042EA04128C6942EA04124260C5614968EF
:102FF000C163036230BD00008FFFFEFF002C014063
:1030000000400140004401400048014030B5026AE0
:1030100022F480520262046A4268C369114D24F4AA
:1030200000542B400D6823F4407343EA05238D6858
:1030300044EA05340C4DA84208D00C4DA84205D0F6
:103040000B4DA84202D00B4DA84204D14D6922F489
:10305000804242EA85124260C361496801640462A9
:1030600030BD0000FF8FFFFE002C014000400140FA
:10307000004401400048014030B5026A22F4803229
:103080000262046A4268436D0F4D2B400D681D4378
:1030900024F400330C8943EA04430C4CA04208D0CA
:1030A0000B4CA04205D00B4CA04202D00A4CA042CF
:1030B00004D14C6922F4803242EA04224260456520
:1030C00049688165036230BD8FFFFEFF002C01401F
:1030D00000400140004401400048014030B5026A10
:1030E00022F480120262046A4268436D104D24F497
:1030F00000142B400D6843EA05230D8944EA05546A
:103100000C4DA84208D00C4DA84205D00B4DA8424A
:1031100002D00B4DA84204D14D6922F4802242EA2C
:103120008522426043654968C165046230BD000084
:10313000FF8FFFFE002C0140004001400044014091
:103140000048014010B5036A046A24F001040462D7
:10315000846924F0F00444EA021423F00A020A43CA
:103160008461026210BD10B5036A23F0100303628C
:103170008369046A23F4704343EA023224F0A00313
:1031800043EA01118261016210BD90F82410C90761
:1031900006D001684A68836A22F400321A434A6002
:1031A00090F82410890706D501684A68C36A22F49A
:1031B00080321A434A6090F82410490706D5016806
:1031C0004A68036B22F480221A434A6090F8241064
:1031D000090706D501684A68436B22F400421A4386
:1031E0004A6090F82410C90606D501688A68836B86
:1031F00022F480521A438A6090F82410890606D57A
:1032000001688A68C36B22F400521A438A6090F8FE
:103210002410490611D501684A68036C22F4801213
:103220001A434A60016CB1F5801F06D101684A68F3
:10323000436C22F4C0021A434A6090F82410090635
:1032400006D501684A68806C22F4002202434A6075
:103250007047F8B500260446C666FDF7B7FD05467B
:10326000206800686FF07E47000708D52B460022D3
:103270004FF400112046009700F0C0F860B92068B4
:10328000006840070AD52B4600224FF480012046F3
:10329000009700F0B3F808B10320F8BD202084F8AF
:1032A000690084F86A0084F868600020F8BD0000B6
:1032B0002DE9F041044610202369A268E6691A430B
:1032C0006369002133431A4323680D461E68444F47
:1032D0003E4016431E6022685368E66823F440535C
:1032E00033435360236AA2691A4323689E6826F415
:1032F000306616439E603B4B22689A4210D13A4B8F
:103300001B6B13F0030311D0012B05D0022B05D04A
:10331000032B0CD102200AE0042008E0082006E07C
:10332000324B9A4202D0324B9A4200D10020E669D9
:103330004FF400439E4226D109281DD2DFE800F059
:103340000508121C151C1C1C1800FDF75FFF01E08E
:10335000FDF774FF4100606801EB5001B1FBF0F034
:1033600081B20AE023496068F6E7FDF77FFFF1E7E5
:103370004FF480316068EFE7012521F00F00C1F3C1
:10338000420108431CE0092825D2DFE800F00508C7
:103390000B24102424241C00FDF738FF09E0FDF75E
:1033A0004DFF06E01449606801EB50010EE0FDF7A7
:1033B0005DFF0146606801EB5001B1FBF0F080B2A7
:1033C0002168C86008E0606803EB5001B1FBF0F0D1
:1033D00080B2D06000E001252846BDE8F081000001
:1033E000F369FFEF00380140001002400044004044
:1033F000004800400024F40000127A002DE9F0415A
:10340000984617460E460446069D1DE0681C1BD0D4
:103410002DB1FDF7DBFCA0EB0800A84214D9206811
:10342000016821F4D07101602068816821F00101F8
:103430008160202084F8690084F86A00002084F804
:1034400068000320BDE8F0812068C06936EA00000A
:1034500004D00020B842D9D00020F3E70120F9E7DA
:1034600070B50C460546F8210068FFF708FC04F02B
:10347000F0012868FFF703FC2007010E2868FFF71A
:10348000FEFB012C04D04820BDE87040FDF79CB93C
:103490004FF4C860F8E770B50D460446FA2100689D
:1034A000FFF7EDFB05F0F0012068FFF7E8FB2807C8
:1034B000010E2068FFF7E3FBBDE870404820FDF7F0
:1034C00083B900000FB4084B10B504A902AA0398F1
:1034D00000F0DEF8044602A9002000F070FC20464F
:1034E00010BC5DF814FB0000BF3D000802E008C8F6
:1034F000121F08C1002AFAD170477047002001E06E
:1035000001C1121F002AFBD1704700002DE9FF5FA7
:1035100082B00021DDE90430020DDDF840B0034344
:1035200018D044F61050A2F2FF32424315141198FD
:1035300001281FD0A5EB0B00401C5FEA000A4FF0EA
:1035400000064E4FDFF83891B046504615D5CAF107
:10355000000413E0119801244AA3012801D16FEA65
:103560000B010298119AC0E90031C0E9024206B08D
:10357000BDE8F09FCBF10000DFE704460021404AA0
:10358000491842EB0450CDE9001012E0E00707D0E3
:1035900032463B4640464946FCF723FF8046894673
:1035A00032463B4610461946FCF71BFF06460F46BF
:1035B0006410002CEAD1DDE90401DDE90023BAF151
:1035C000000F06DAFCF70DFF42464B46FCF709FFF9
:1035D00005E0FCF778FF42464B46FCF774FF0446D3
:1035E0000E460022284BFCF7F5FF03D84FF0FF30C2
:1035F000014607E00022254B20463146FCF74AFEF3
:10360000FCF7D0FF102409E0002C0ADB0A2200237B
:10361000FCF70FFE039B30321A55641E50EA01027C
:10362000F2D1641C039AC4F111031444119A012AC3
:1036300003D0012208430DD10AE0084304D0002042
:103640004FF0110B119072E7A3EB0B056D1E0DE00F
:103650005B4504DD4FF0000205F1010504E003DAEB
:103660004FF00002A5F10105002AECD00298119953
:10367000C0E90231C0E9004579E7000000001440CC
:103680000000F03F300000000000F0430000E03F89
:103690002DE9FF4F95B09B468946064600250FE26F
:1036A000252877D100242746F84A0121059400E017
:1036B000044316F8013F203B01FA03F01042F7D112
:1036C00030782A2811D06FF02F033078A0F1300223
:1036D000092A16D8059A44F0020402EB820203EB91
:1036E00042021044761C0590EFE759F8042B05922E
:1036F000002A03DA504244F40054059044F00204D6
:10370000761C30782E2816D116F8010F44F00404E8
:103710002A280DD06FF02F023078A0F13003092B4A
:1037200009D807EB870302EB4303C718761CF3E7BE
:1037300059F8047B761C30786C280FD006DC4C28B6
:1037400017D068280DD06A2814D104E0742810D04E
:103750007A280FD10DE044F400140AE044F48014F8
:1037600001E044F440147278824202D104F58014DE
:10377000761C761C307866280BD013DC582877D05E
:1037800009DC002875D04528F6D04628F4D0472813
:103790001AD19DE118E0632835D0642879D06528D6
:1037A00012D195E1702873D008DC6728F1D0692820
:1037B0006FD06E280DD06F2806D1B5E073282CD0BD
:1037C000752875D0782874D05A46179990476D1C83
:1037D00075E1C4F30250022809D003280DD0D9F8AE
:1037E000001004280DD00D6009F1040967E1D9F833
:1037F0000010EA17C1E90052F6E7D9F800100D8071
:10380000F2E70D70F0E719F8041B8DF800100020A6
:103810008DF80100EA46012003E059F804AB4FF0AF
:10382000FF3061074FF0000102D40DE008F1010103
:103830008846B9420FDA8045F8DB1AF808100029EB
:10384000F4D108E008F1010188468142FADB1AF858
:1038500008100029F6D105985B46A0EB0807214621
:103860003846179A00F094FA284400EB080507E060
:103870004DE029E10DE01AF8010B5A4617999047DF
:10388000B8F10108F7D25B4621463846179A13E192
:1038900042E00A220092C4F302524FF0000A022AC8
:1038A00008D059F804CB032A4FEAEC710AD00DE096
:1038B00029E02AE009F1070121F00702F2E802C13C
:1038C000914609E00FFA8CFC4FEAEC71042A03D10F
:1038D0004FFA8CFC4FEAEC71002907DA0A46002106
:1038E000DCF1000C61EB02012D2202E0220504D57F
:1038F0002B228DF80420012203E0E20701D02022D0
:10390000F7E7904659E00A2102E010220DE010216D
:103910004FF0000A00910BE010224FF0000A44F033
:1039200004040827009203E008224FF0000A0092E6
:10393000C4F30252022A05D059F804CB0021032A0D
:1039400008D009E009F1070121F00702F2E802C1FD
:10395000914605E01FFA8CFC042A01D10CF0FF0C03
:103960004FF00008220728D5702806D0009B83F06E
:10397000100353EA0A0305D00EE040228DF804201C
:10398000012208E05CEA010206D030228DF8042012
:103990008DF8050002229046009B83F0080353EA4D
:1039A0000A030AD15CEA010201D1620705D530227F
:1039B0008DF804204FF001087F1E582804D034A051
:1039C00003900EA802900DE036A0F9E7534660463A
:1039D000009AFCF72EFC84460398825C0298401EF5
:1039E000029002705CEA0100F0D1029806A9081A60
:1039F00000F1200A600702D524F4803400E001279A
:103A0000574502DDA7EB0A0000E0002000EB0A01A9
:103A1000009005984144401A0590E00306D45B46A7
:103A20002146179A059800F0B3F90544002706E0EF
:103A300001A85A46C05D179990476D1C7F1C4745E9
:103A4000F6DBE0030CD55B462146179A059800F09B
:103A50009FF9054404E030205A46179990476D1CA1
:103A60000099481E00900029F5DC08E002980299B0
:103A70005A460078491C0291179990476D1CBAF17B
:103A80000001AAF1010AF1DC65E10000092801004A
:103A900030313233343536373839616263646566C4
:103AA0000000000030313233343536373839414286
:103AB000434445460000000000F058F90544761CD8
:103AC000307800287FF4ECAD19B02846BDE8F08FBF
:103AD000620700D4062709F1070222F0070CFCE870
:103AE0000223E14603F000485FEA080C02D00FF21F
:103AF000702C0DE05FEA045C02D50FF2682C07E041
:103B00005FEAC47C02D00FF2602C01E0AFF2700CCF
:103B10004FF0FF3823F00043CDF850C065280CD09B
:103B200006DC452809D046281DD047283DD13DE078
:103B3000662818D067287ED138E00021112F01DBDC
:103B4000112000E0781CCDE9000106A90EA8FFF7BE
:103B5000DDFCDDE90F010E9A03910021009207F1CF
:103B6000010A04914DE04FF000400097CDE90110AB
:103B700006A90EA8FFF7CAFCDDE90F0203920E9B0F
:103B800011990022DDF80CA00093049211B9791C60
:103B900000EB010AB7EB0A0004D4C0F1FF3007F1D3
:103BA000010A0490AAEB0700019044E0012F00DA1B
:103BB00001270021112F01DD112000E03846CDE959
:103BC000000106A90EA8FFF7A1FCDDE90F010E9A7E
:103BD0000391002104910092BA4621070CD4039965
:103BE000514500DA8A46BAF1010F05DD009AAAF1C3
:103BF0000101515C302908D0B84202DA10F1040FFB
:103C000006DA0121CDE9011015E0AAF10101E9E789
:103C1000002805DC049901440491AAEB000102E0AC
:103C2000411C514500DD8A460499401A401C019010
:103C30004FF000400290200704D40198504501DB6A
:103C4000CDF8048000208DF84F0002980DF14F0749
:103C5000B0F1004F25D02B200E9002984FF00208B3
:103C600000280CDA404202902D200E9007E00A2135
:103C70000298FCF7C8FA3031029007F8011DB8F13C
:103C80000001A8F10108F2DC02980028EFD1791EAA
:103C90000E980870307800F0200040F0450007F8DA
:103CA000020D12A8C01B00F107081498007800B19B
:103CB000012000EB0A01019801EBE07105984144F5
:103CC000401A401E0590E00306D45B462146179A31
:103CD000059800F05DF805441498007818B15A462C
:103CE000179990476D1CE00324D55B462146179A2F
:103CF000059800F04DF805441CE00498002807DB07
:103D0000DDE90301884203DD0098405C179901E07A
:103D1000179930205A469047049805F10105401C38
:103D200004900198401E019004D12E205A46179904
:103D300090476D1CBAF10001AAF1010ADDDC05E033
:103D400017F8010B5A46179990476D1CB8F10001FE
:103D5000A8F10108F4DC5B462146179A0598ABE60A
:103D60002D0000002B000000200000002DE9F04194
:103D7000044600251E461746880404D405E039464B
:103D80002020B0476D1C641EF9D52846BDE8F0819F
:103D90002DE9F041044600251E469046C80301D592
:103DA000302700E02027880404D505E04146384646
:103DB000B0476D1C641EF9D52846BDE8F0810A683D
:103DC000531C0B601070704710B5041E0D484FF463
:103DD000806184644FF0904005DD4A00944200DD2C
:103DE0001446002204E0084A944200DA14460122F4
:103DF000FCF7E7FF002C00DA6442044920B20968AE
:103E0000486310BD0000002000F8FFFF8C01002077
:103E1000084890ED0E0AB5EEC00AF1EE10FA07DD83
:103E200090ED0E0ADFED040A30EE600A80ED0E0A16
:103E300070470000000000200000C842084890EDD4
:103E40000F0AB5EEC00AF1EE10FA07DD90ED0F0A89
:103E5000DFED040A30EE600A80ED0F0A70470000C3
:103E600000000020CDCCCC3D02460021084601E0F8
:103E7000401CC0B2535C491CC9B22E2BF8D170470C
:103E800010B5002821D0114B0022001F196803E053
:103E9000814203D80A4649680029F9D152B1136812
:103EA000841A9C4204D1006818441060104602E055
:103EB000506000E0186039B102680B1A934203D1D8
:103EC0000B681A4402604968416010BD6000002020
:103ED0000848094A90ED0E0A10EE101A914207DACE
:103EE00090ED0E0ADFED050A30EE200A80ED0E0A95
:103EF000704700000000002000401C460000C8423F
:103F00000848094A90ED0F0A10EE101A914207DA9C
:103F100090ED0F0ADFED050A30EE200A80ED0F0A62
:103F200070470000000000200000C041CDCCCC3D17
:103F3000FCF75AFFFEF7B1FEFEF72AFCFEF7A4FDE0
:103F4000FEF748FDFEF706FDFEF774FDFEF7AEFC3A
:103F500017481649002401604FF6FF11C0E901140B
:103F6000C721C0E9031444618461FDF741FE00B13B
:103F7000FEE7FEF7C3FCFCF705FC012210214FF021
:103F80009040FCF71EFF042000F018F8094D0A4984
:103F9000E864FEF7FBFBE86CFEF7D1FB00F08EF85F
:103FA0000348403800684463FEE7000000480140D1
:103FB000CC0100200000002068000020F0B50B308C
:103FC000154D20F007010024144A0FE003688B42CE
:103FD0000BD38B4205D95E1A43184768C3E90067C3
:103FE00000E04368136002C004E0021D106800286E
:103FF000ECD12046002802D1286808B10020F0BD8D
:10400000064A07481060074A121A22F00702C0E960
:10401000002401202860D7E7640000206000002011
:10402000840200208004002038B5184CE06CFEF7B4
:1040300023FEE06CFCF79BFBE06CFEF70EFEE06CF1
:10404000FCF770FBE06CFEF717FE052000220090E5
:104050000FA31146E06CFCF7CDFB102000900EA3DF
:1040600000220121E06CFCF7C5FB042000900FA3A7
:104070000F220221E06CFCF7ECFB062000900DA360
:1040800000220321E06CFCF7B5FB38BD00000020E6
:10409000696E666F400000006B6F7065726E696BD1
:1040A000726F626F74696373000000002E636F6D3E
:1040B0000000000076312E302E3000002DE9F8434C
:1040C0002C4C4FF0010884F80380E06CFEF7D4FD1F
:1040D000E06CFCF74CFBE06CFEF7BFFDE06CFCF71E
:1040E00021FB0026002546F080073946E06CFFF7EB
:1040F000B7F945F08001E06CFFF7B2F9FF21E06C01
:10410000FFF7C9F9FF21E06CFFF7C5F96D1CEDB2AF
:10411000082DEAD3761CF6B20F2EE3D384F8048080
:1041200041460122E06CFEF721FAE06CFEF7A4FDA7
:104130000E20009010A301220021E06CFCF75AFB36
:104140000B200122009010A31146E06CFCF752FBFB
:104150000F2000900FA301220221E06CFCF74AFB24
:10416000052000900FA301220321E06CFCF742FB25
:10417000BDE8F883000000204D4F54494F4E204DBC
:10418000414E41474552000052504D20436F6E74DE
:10419000726F6C00566F6C7461676520436F6E744C
:1041A000726F6C0041626F757400000038B5274C67
:1041B000E06CFEF761FDE06CFCF7D9FA3C21244885
:1041C000FDF7A4FE22484030FDF77EFD2048002187
:1041D000C030FEF767F8E06CFEF73FFDE06CFCF7DF
:1041E000A1FAE06CFCF76CFBE06CFEF737FAE06CD0
:1041F000FEF76DFAE06CFEF797F9E06CFEF73CFD18
:1042000007200022009013A31146E06CFCF7F2FA9D
:104210000320009010A309220021E06CFCF7EAFAC9
:10422000092000900DA300220221E06CFCF7E2FAC5
:10423000062000900CA30E220321E06CFCF709FB82
:10424000BDE838400A48FDF73FBD000000000020EF
:10425000CC0000205265662052504D00466C6F77AE
:1042600020526174650000006D6C2F6D696E000056
:10427000CC01002038B5274CE06CFEF7FDFCE06C6B
:10428000FCF775FA3C212448FDF740FE22484030F7
:10429000FDF71AFD20480021C030FEF703F8E06C5E
:1042A000FEF7DBFCE06CFCF73DFAE06CFCF708FB8A
:1042B000E06CFEF7D3F9E06CFEF709FAE06CFEF76C
:1042C00033F9E06CFEF7D8FC07200022009013A31E
:1042D0001146E06CFCF78EFA0320009011A309222E
:1042E0000021E06CFCF786FA092000900EA3002262
:1042F0000221E06CFCF77EFA062000900DA30E224E
:104300000321E06CFCF7A5FABDE838400B48FDF747
:10431000DBBC000000000020CC000020566F6C7455
:104320006167650052504D00466C6F772052617492
:10433000650000006D6C2F6D696E0000CC010020DF
:1043400038B54C4C1020009045A300220121E06CB0
:10435000FCF750FA0820009043A300220321E06CF0
:10436000FCF748FA1020FFF729FE0546E0780228FE
:1043700002D003280BD020E06078012801D018B1CA
:104380001BE094ED0E0A0CE094ED0C0A09E0607855
:10439000012801D018B110E094ED0F0A01E094ED6E
:1043A000060A10EE100AFBF71BFF41EC100B32A1BE
:1043B00053EC102B2846FFF785F82846FFF754FDED
:1043C0002846FFF751FD801C00902B460622012154
:1043D000E06CFCF73EFA2846FFF752FD1020FFF78D
:1043E000EDFD94ED040A054610EE100AFBF7F8FE09
:1043F00041EC100B20A153EC102B2846FFF762F87C
:104400002846FFF731FD801C00902B460F2201212A
:10441000E06CFCF71EFA2846FFF732FD1020FFF78C
:10442000CDFD94ED0D0A054610EE100AFBF7D8FEFF
:1044300041EC100B10A153EC102B2846FFF742F86B
:104440002846FFF711FD801C00902B460722032110
:10445000E06CFCF7FEF92846BDE83840FFF710BDD8
:10446000202020202020202020202020202020204C
:104470000000000000000020252E31660000000032
:104480000949B3EE081A91ED060AC0EE010A9FED44
:10449000070A20EE800ABDEEC00A10EE100A8864FA
:1044A0000349096848637047000000200000004588
:1044B0008C01002010B5134C9D21E06CFEF7D0FF5D
:1044C0008021E06CFEF7CCFF7F21E06CFEF7E3FF7C
:1044D000FF21E06CFEF7DFFFFF21E06CFEF7DBFF62
:1044E000FF21E06CFEF7D7FFFF21E06CFEF7D3FF62
:1044F000FF21E06CFEF7CFFFE06CBDE81040FF212C
:10450000FEF7C9BF0000002010B5134C9D21E06CE0
:10451000FEF7A6FF8021E06CFEF7A2FF0021E06C11
:10452000FEF7B9FF0021E06CFEF7B5FF0021E06C5B
:10453000FEF7B1FF0021E06CFEF7ADFF0021E06C5B
:10454000FEF7A9FF0021E06CFEF7A5FFE06CBDE8D7
:1045500010400021FEF79FBF000000200200000075
:104560000000000003000000010000000100000046
:104570000300000000000000020000000203040528
:10458000060708090A0B0C0D0E0F10100102030498
:1045900005060708090A0B0C0D0E0F10000000009D
:1045A00000000000010203040607080900000000E3
:1045B00001020304D4450008000000206800000048
:1045C000EC3400083C460008680000201808000091
:1045D000FC340008000000000000000000000000A3
:1045E00000000000000000006F12033E0000000009
:1045F0000AD7A33C0AD7233C000000000000FAC4FD
:104600000000FA440000000000000000000000006C
:10461000000000000000000000000000000000009A
:104620000000000001000000100000000000000079
:0C46300000127A000000000000000000F2
:040000050800018965
:00000001FF
